{
  "contractName": "Warranty",
  "abi": [
    {
      "inputs": [],
      "stateMutability": "nonpayable",
      "type": "constructor"
    },
    {
      "anonymous": false,
      "inputs": [
        {
          "indexed": true,
          "internalType": "address",
          "name": "owner",
          "type": "address"
        },
        {
          "indexed": true,
          "internalType": "address",
          "name": "approved",
          "type": "address"
        },
        {
          "indexed": true,
          "internalType": "uint256",
          "name": "tokenId",
          "type": "uint256"
        }
      ],
      "name": "Approval",
      "type": "event"
    },
    {
      "anonymous": false,
      "inputs": [
        {
          "indexed": true,
          "internalType": "address",
          "name": "owner",
          "type": "address"
        },
        {
          "indexed": true,
          "internalType": "address",
          "name": "operator",
          "type": "address"
        },
        {
          "indexed": false,
          "internalType": "bool",
          "name": "approved",
          "type": "bool"
        }
      ],
      "name": "ApprovalForAll",
      "type": "event"
    },
    {
      "anonymous": false,
      "inputs": [
        {
          "indexed": true,
          "internalType": "address",
          "name": "from",
          "type": "address"
        },
        {
          "indexed": true,
          "internalType": "address",
          "name": "to",
          "type": "address"
        },
        {
          "indexed": true,
          "internalType": "uint256",
          "name": "tokenId",
          "type": "uint256"
        }
      ],
      "name": "Transfer",
      "type": "event"
    },
    {
      "anonymous": false,
      "inputs": [
        {
          "indexed": true,
          "internalType": "address",
          "name": "_to",
          "type": "address"
        },
        {
          "indexed": false,
          "internalType": "uint256",
          "name": "_serialID",
          "type": "uint256"
        },
        {
          "indexed": false,
          "internalType": "uint256",
          "name": "_validTill",
          "type": "uint256"
        },
        {
          "indexed": false,
          "internalType": "uint256",
          "name": "_tokenId",
          "type": "uint256"
        }
      ],
      "name": "WarrantyIssue",
      "type": "event"
    },
    {
      "inputs": [],
      "name": "Shop_owner",
      "outputs": [
        {
          "internalType": "address",
          "name": "",
          "type": "address"
        }
      ],
      "stateMutability": "view",
      "type": "function",
      "constant": true
    },
    {
      "inputs": [
        {
          "internalType": "address",
          "name": "to",
          "type": "address"
        },
        {
          "internalType": "uint256",
          "name": "tokenId",
          "type": "uint256"
        }
      ],
      "name": "approve",
      "outputs": [],
      "stateMutability": "nonpayable",
      "type": "function"
    },
    {
      "inputs": [
        {
          "internalType": "address",
          "name": "owner",
          "type": "address"
        }
      ],
      "name": "balanceOf",
      "outputs": [
        {
          "internalType": "uint256",
          "name": "",
          "type": "uint256"
        }
      ],
      "stateMutability": "view",
      "type": "function",
      "constant": true
    },
    {
      "inputs": [
        {
          "internalType": "uint256",
          "name": "tokenId",
          "type": "uint256"
        }
      ],
      "name": "getApproved",
      "outputs": [
        {
          "internalType": "address",
          "name": "",
          "type": "address"
        }
      ],
      "stateMutability": "view",
      "type": "function",
      "constant": true
    },
    {
      "inputs": [
        {
          "internalType": "address",
          "name": "owner",
          "type": "address"
        },
        {
          "internalType": "address",
          "name": "operator",
          "type": "address"
        }
      ],
      "name": "isApprovedForAll",
      "outputs": [
        {
          "internalType": "bool",
          "name": "",
          "type": "bool"
        }
      ],
      "stateMutability": "view",
      "type": "function",
      "constant": true
    },
    {
      "inputs": [
        {
          "internalType": "uint256",
          "name": "",
          "type": "uint256"
        }
      ],
      "name": "isValid",
      "outputs": [
        {
          "internalType": "bool",
          "name": "",
          "type": "bool"
        }
      ],
      "stateMutability": "view",
      "type": "function",
      "constant": true
    },
    {
      "inputs": [],
      "name": "name",
      "outputs": [
        {
          "internalType": "string",
          "name": "",
          "type": "string"
        }
      ],
      "stateMutability": "view",
      "type": "function",
      "constant": true
    },
    {
      "inputs": [
        {
          "internalType": "uint256",
          "name": "tokenId",
          "type": "uint256"
        }
      ],
      "name": "ownerOf",
      "outputs": [
        {
          "internalType": "address",
          "name": "",
          "type": "address"
        }
      ],
      "stateMutability": "view",
      "type": "function",
      "constant": true
    },
    {
      "inputs": [
        {
          "internalType": "address",
          "name": "from",
          "type": "address"
        },
        {
          "internalType": "address",
          "name": "to",
          "type": "address"
        },
        {
          "internalType": "uint256",
          "name": "tokenId",
          "type": "uint256"
        }
      ],
      "name": "safeTransferFrom",
      "outputs": [],
      "stateMutability": "nonpayable",
      "type": "function"
    },
    {
      "inputs": [
        {
          "internalType": "address",
          "name": "from",
          "type": "address"
        },
        {
          "internalType": "address",
          "name": "to",
          "type": "address"
        },
        {
          "internalType": "uint256",
          "name": "tokenId",
          "type": "uint256"
        },
        {
          "internalType": "bytes",
          "name": "data",
          "type": "bytes"
        }
      ],
      "name": "safeTransferFrom",
      "outputs": [],
      "stateMutability": "nonpayable",
      "type": "function"
    },
    {
      "inputs": [
        {
          "internalType": "address",
          "name": "operator",
          "type": "address"
        },
        {
          "internalType": "bool",
          "name": "approved",
          "type": "bool"
        }
      ],
      "name": "setApprovalForAll",
      "outputs": [],
      "stateMutability": "nonpayable",
      "type": "function"
    },
    {
      "inputs": [
        {
          "internalType": "bytes4",
          "name": "interfaceId",
          "type": "bytes4"
        }
      ],
      "name": "supportsInterface",
      "outputs": [
        {
          "internalType": "bool",
          "name": "",
          "type": "bool"
        }
      ],
      "stateMutability": "view",
      "type": "function",
      "constant": true
    },
    {
      "inputs": [],
      "name": "symbol",
      "outputs": [
        {
          "internalType": "string",
          "name": "",
          "type": "string"
        }
      ],
      "stateMutability": "view",
      "type": "function",
      "constant": true
    },
    {
      "inputs": [],
      "name": "tokenId",
      "outputs": [
        {
          "internalType": "uint256",
          "name": "_value",
          "type": "uint256"
        }
      ],
      "stateMutability": "view",
      "type": "function",
      "constant": true
    },
    {
      "inputs": [
        {
          "internalType": "uint256",
          "name": "",
          "type": "uint256"
        }
      ],
      "name": "tokenIdToPerson",
      "outputs": [
        {
          "internalType": "address",
          "name": "",
          "type": "address"
        }
      ],
      "stateMutability": "view",
      "type": "function",
      "constant": true
    },
    {
      "inputs": [
        {
          "internalType": "uint256",
          "name": "",
          "type": "uint256"
        }
      ],
      "name": "tokenIdTotokenURI",
      "outputs": [
        {
          "internalType": "string",
          "name": "",
          "type": "string"
        }
      ],
      "stateMutability": "view",
      "type": "function",
      "constant": true
    },
    {
      "inputs": [
        {
          "internalType": "uint256",
          "name": "tokenId",
          "type": "uint256"
        }
      ],
      "name": "tokenURI",
      "outputs": [
        {
          "internalType": "string",
          "name": "",
          "type": "string"
        }
      ],
      "stateMutability": "view",
      "type": "function",
      "constant": true
    },
    {
      "inputs": [
        {
          "internalType": "address",
          "name": "from",
          "type": "address"
        },
        {
          "internalType": "address",
          "name": "to",
          "type": "address"
        },
        {
          "internalType": "uint256",
          "name": "tokenId",
          "type": "uint256"
        }
      ],
      "name": "transferFrom",
      "outputs": [],
      "stateMutability": "nonpayable",
      "type": "function"
    },
    {
      "inputs": [
        {
          "internalType": "uint256",
          "name": "",
          "type": "uint256"
        }
      ],
      "name": "validTill",
      "outputs": [
        {
          "internalType": "uint256",
          "name": "",
          "type": "uint256"
        }
      ],
      "stateMutability": "view",
      "type": "function",
      "constant": true
    },
    {
      "inputs": [
        {
          "internalType": "address",
          "name": "",
          "type": "address"
        },
        {
          "internalType": "uint256",
          "name": "",
          "type": "uint256"
        }
      ],
      "name": "warrantyIssuedTo",
      "outputs": [
        {
          "internalType": "bool",
          "name": "",
          "type": "bool"
        }
      ],
      "stateMutability": "view",
      "type": "function",
      "constant": true
    },
    {
      "inputs": [
        {
          "internalType": "address",
          "name": "_to",
          "type": "address"
        },
        {
          "internalType": "uint256",
          "name": "_serialID",
          "type": "uint256"
        },
        {
          "internalType": "uint256",
          "name": "_validTill",
          "type": "uint256"
        }
      ],
      "name": "warrantyIssue",
      "outputs": [
        {
          "internalType": "uint256",
          "name": "",
          "type": "uint256"
        }
      ],
      "stateMutability": "nonpayable",
      "type": "function"
    },
    {
      "inputs": [
        {
          "internalType": "uint256",
          "name": "_tokenId",
          "type": "uint256"
        },
        {
          "internalType": "string",
          "name": "_tokenURI",
          "type": "string"
        },
        {
          "internalType": "uint256",
          "name": "_serialID",
          "type": "uint256"
        }
      ],
      "name": "claimWarranty",
      "outputs": [
        {
          "internalType": "bool",
          "name": "",
          "type": "bool"
        }
      ],
      "stateMutability": "nonpayable",
      "type": "function"
    },
    {
      "inputs": [],
      "name": "checkValid",
      "outputs": [],
      "stateMutability": "nonpayable",
      "type": "function"
    }
  ],
  "bytecode": "0x60806040523480156200001157600080fd5b506040518060400160405280600b81526020017f57617272616e74794e46540000000000000000000000000000000000000000008152506040518060400160405280600481526020017f574e465400000000000000000000000000000000000000000000000000000000815250816000908051906020019062000096929190620000f9565b508060019080519060200190620000af929190620000f9565b50505033600760006101000a81548173ffffffffffffffffffffffffffffffffffffffff021916908373ffffffffffffffffffffffffffffffffffffffff1602179055506200020e565b8280546200010790620001a9565b90600052602060002090601f0160209004810192826200012b576000855562000177565b82601f106200014657805160ff191683800117855562000177565b8280016001018555821562000177579182015b828111156200017657825182559160200191906001019062000159565b5b5090506200018691906200018a565b5090565b5b80821115620001a55760008160009055506001016200018b565b5090565b60006002820490506001821680620001c257607f821691505b60208210811415620001d957620001d8620001df565b5b50919050565b7f4e487b7100000000000000000000000000000000000000000000000000000000600052602260045260246000fd5b6134b9806200021e6000396000f3fe608060405234801561001057600080fd5b506004361061014d5760003560e01c8063690a76bf116100c3578063a22cb4651161007c578063a22cb465146103d8578063b88d4fde146103f4578063c87b56dd14610410578063da42613a14610440578063e985e9c514610470578063f577a500146104a05761014d565b8063690a76bf146102ca57806370a08231146102fa5780637c5009151461032a578063858ca1441461035a57806395d89b411461038a578063a1f5aab9146103a85761014d565b806317d70f7c1161011557806317d70f7c1461021c5780631b9874441461023a57806323b872dd1461024457806342842e0e146102605780634f243fcd1461027c5780636352211e1461029a5761014d565b806301ffc9a71461015257806306fdde0314610182578063081812fc146101a0578063095ea7b3146101d05780631067e2ab146101ec575b600080fd5b61016c600480360381019061016791906124ce565b6104d0565b604051610179919061295e565b60405180910390f35b61018a6105b2565b6040516101979190612979565b60405180910390f35b6101ba60048036038101906101b59190612520565b610644565b6040516101c791906128f7565b60405180910390f35b6101ea60048036038101906101e59190612443565b61068a565b005b61020660048036038101906102019190612520565b6107a2565b6040516102139190612bbb565b60405180910390f35b6102246107ba565b6040516102319190612bbb565b60405180910390f35b6102426107c6565b005b61025e6004803603810190610259919061233d565b61083f565b005b61027a6004803603810190610275919061233d565b61089f565b005b6102846108bf565b60405161029191906128f7565b60405180910390f35b6102b460048036038101906102af9190612520565b6108e5565b6040516102c191906128f7565b60405180910390f35b6102e460048036038101906102df9190612520565b610997565b6040516102f191906128f7565b60405180910390f35b610314600480360381019061030f91906122d8565b6109ca565b6040516103219190612bbb565b60405180910390f35b610344600480360381019061033f9190612443565b610a82565b604051610351919061295e565b60405180910390f35b610374600480360381019061036f9190612549565b610ab1565b604051610381919061295e565b60405180910390f35b610392610cfe565b60405161039f9190612979565b60405180910390f35b6103c260048036038101906103bd9190612520565b610d90565b6040516103cf9190612979565b60405180910390f35b6103f260048036038101906103ed9190612407565b610e30565b005b61040e6004803603810190610409919061238c565b610e46565b005b61042a60048036038101906104259190612520565b610ea8565b6040516104379190612979565b60405180910390f35b61045a6004803603810190610455919061247f565b610fbb565b6040516104679190612bbb565b60405180910390f35b61048a60048036038101906104859190612301565b61120b565b604051610497919061295e565b60405180910390f35b6104ba60048036038101906104b59190612520565b61129f565b6040516104c7919061295e565b60405180910390f35b60007f80ac58cd000000000000000000000000000000000000000000000000000000007bffffffffffffffffffffffffffffffffffffffffffffffffffffffff1916827bffffffffffffffffffffffffffffffffffffffffffffffffffffffff1916148061059b57507f5b5e139f000000000000000000000000000000000000000000000000000000007bffffffffffffffffffffffffffffffffffffffffffffffffffffffff1916827bffffffffffffffffffffffffffffffffffffffffffffffffffffffff1916145b806105ab57506105aa826112bf565b5b9050919050565b6060600080546105c190612e48565b80601f01602080910402602001604051908101604052809291908181526020018280546105ed90612e48565b801561063a5780601f1061060f5761010080835404028352916020019161063a565b820191906000526020600020905b81548152906001019060200180831161061d57829003601f168201915b5050505050905090565b600061064f82611329565b6004600083815260200190815260200160002060009054906101000a900473ffffffffffffffffffffffffffffffffffffffff169050919050565b6000610695826108e5565b90508073ffffffffffffffffffffffffffffffffffffffff168373ffffffffffffffffffffffffffffffffffffffff161415610706576040517f08c379a00000000000000000000000000000000000000000000000000000000081526004016106fd90612b7b565b60405180910390fd5b8073ffffffffffffffffffffffffffffffffffffffff16610725611374565b73ffffffffffffffffffffffffffffffffffffffff16148061075457506107538161074e611374565b61120b565b5b610793576040517f08c379a000000000000000000000000000000000000000000000000000000000815260040161078a90612b1b565b60405180910390fd5b61079d838361137c565b505050565b600d6020528060005260406000206000915090505481565b60088060000154905081565b6000600190505b6107d76008611435565b811161083c5742600d600083815260200190815260200160002054106107fc57610829565b6000600c600083815260200190815260200160002060006101000a81548160ff0219169083151502179055505b808061083490612eab565b9150506107cd565b50565b61085061084a611374565b82611443565b61088f576040517f08c379a000000000000000000000000000000000000000000000000000000000815260040161088690612b9b565b60405180910390fd5b61089a8383836114d8565b505050565b6108ba83838360405180602001604052806000815250610e46565b505050565b600760009054906101000a900473ffffffffffffffffffffffffffffffffffffffff1681565b6000806002600084815260200190815260200160002060009054906101000a900473ffffffffffffffffffffffffffffffffffffffff169050600073ffffffffffffffffffffffffffffffffffffffff168173ffffffffffffffffffffffffffffffffffffffff16141561098e576040517f08c379a000000000000000000000000000000000000000000000000000000000815260040161098590612b5b565b60405180910390fd5b80915050919050565b600a6020528060005260406000206000915054906101000a900473ffffffffffffffffffffffffffffffffffffffff1681565b60008073ffffffffffffffffffffffffffffffffffffffff168273ffffffffffffffffffffffffffffffffffffffff161415610a3b576040517f08c379a0000000000000000000000000000000000000000000000000000000008152600401610a3290612abb565b60405180910390fd5b600360008373ffffffffffffffffffffffffffffffffffffffff1673ffffffffffffffffffffffffffffffffffffffff168152602001908152602001600020549050919050565b60096020528160005260406000206020528060005260406000206000915091509054906101000a900460ff1681565b60003373ffffffffffffffffffffffffffffffffffffffff16600a600086815260200190815260200160002060009054906101000a900473ffffffffffffffffffffffffffffffffffffffff1673ffffffffffffffffffffffffffffffffffffffff1614610b54576040517f08c379a0000000000000000000000000000000000000000000000000000000008152600401610b4b90612adb565b60405180910390fd5b60011515600960003373ffffffffffffffffffffffffffffffffffffffff1673ffffffffffffffffffffffffffffffffffffffff168152602001908152602001600020600084815260200190815260200160002060009054906101000a900460ff16151514610bf8576040517f08c379a0000000000000000000000000000000000000000000000000000000008152600401610bef90612a9b565b60405180910390fd5b42600d6000868152602001908152602001600020541115610c4e576040517f08c379a0000000000000000000000000000000000000000000000000000000008152600401610c4590612a7b565b60405180910390fd5b610c58338561173f565b610c628484611919565b82600b60008681526020019081526020016000209080519060200190610c899291906120fc565b506000600960003373ffffffffffffffffffffffffffffffffffffffff1673ffffffffffffffffffffffffffffffffffffffff168152602001908152602001600020600084815260200190815260200160002060006101000a81548160ff021916908315150217905550600190509392505050565b606060018054610d0d90612e48565b80601f0160208091040260200160405190810160405280929190818152602001828054610d3990612e48565b8015610d865780601f10610d5b57610100808354040283529160200191610d86565b820191906000526020600020905b815481529060010190602001808311610d6957829003601f168201915b5050505050905090565b600b6020528060005260406000206000915090508054610daf90612e48565b80601f0160208091040260200160405190810160405280929190818152602001828054610ddb90612e48565b8015610e285780601f10610dfd57610100808354040283529160200191610e28565b820191906000526020600020905b815481529060010190602001808311610e0b57829003601f168201915b505050505081565b610e42610e3b611374565b838361198d565b5050565b610e57610e51611374565b83611443565b610e96576040517f08c379a0000000000000000000000000000000000000000000000000000000008152600401610e8d90612b9b565b60405180910390fd5b610ea284848484611afa565b50505050565b6060610eb382611329565b6000600660008481526020019081526020016000208054610ed390612e48565b80601f0160208091040260200160405190810160405280929190818152602001828054610eff90612e48565b8015610f4c5780601f10610f2157610100808354040283529160200191610f4c565b820191906000526020600020905b815481529060010190602001808311610f2f57829003601f168201915b505050505090506000610f5d611b56565b9050600081511415610f73578192505050610fb6565b600082511115610fa8578082604051602001610f909291906128d3565b60405160208183030381529060405292505050610fb6565b610fb184611b6d565b925050505b919050565b6000600760009054906101000a900473ffffffffffffffffffffffffffffffffffffffff1673ffffffffffffffffffffffffffffffffffffffff163373ffffffffffffffffffffffffffffffffffffffff161461101757600080fd5b60011515600960008673ffffffffffffffffffffffffffffffffffffffff1673ffffffffffffffffffffffffffffffffffffffff168152602001908152602001600020600085815260200190815260200160002060009054906101000a900460ff16151514156110bc576040517f08c379a00000000000000000000000000000000000000000000000000000000081526004016110b3906129fb565b60405180910390fd5b6001600960008673ffffffffffffffffffffffffffffffffffffffff1673ffffffffffffffffffffffffffffffffffffffff168152602001908152602001600020600085815260200190815260200160002060006101000a81548160ff02191690831515021790555061112f6008611bd5565b83600a600061113e6008611435565b815260200190815260200160002060006101000a81548173ffffffffffffffffffffffffffffffffffffffff021916908373ffffffffffffffffffffffffffffffffffffffff16021790555061119d6111976008611435565b83611beb565b8373ffffffffffffffffffffffffffffffffffffffff167f6703d5636d77df461907923ea005d486cf40099084b66de0676a1e1225c8e8b784846111e16008611435565b6040516111f093929190612bd6565b60405180910390a26112026008611435565b90509392505050565b6000600560008473ffffffffffffffffffffffffffffffffffffffff1673ffffffffffffffffffffffffffffffffffffffff16815260200190815260200160002060008373ffffffffffffffffffffffffffffffffffffffff1673ffffffffffffffffffffffffffffffffffffffff16815260200190815260200160002060009054906101000a900460ff16905092915050565b600c6020528060005260406000206000915054906101000a900460ff1681565b60007f01ffc9a7000000000000000000000000000000000000000000000000000000007bffffffffffffffffffffffffffffffffffffffffffffffffffffffff1916827bffffffffffffffffffffffffffffffffffffffffffffffffffffffff1916149050919050565b61133281611d1f565b611371576040517f08c379a000000000000000000000000000000000000000000000000000000000815260040161136890612b5b565b60405180910390fd5b50565b600033905090565b816004600083815260200190815260200160002060006101000a81548173ffffffffffffffffffffffffffffffffffffffff021916908373ffffffffffffffffffffffffffffffffffffffff160217905550808273ffffffffffffffffffffffffffffffffffffffff166113ef836108e5565b73ffffffffffffffffffffffffffffffffffffffff167f8c5be1e5ebec7d5bd14f71427d1e84f3dd0314c0f7b2291e5b200ac8c7c3b92560405160405180910390a45050565b600081600001549050919050565b60008061144f836108e5565b90508073ffffffffffffffffffffffffffffffffffffffff168473ffffffffffffffffffffffffffffffffffffffff1614806114915750611490818561120b565b5b806114cf57508373ffffffffffffffffffffffffffffffffffffffff166114b784610644565b73ffffffffffffffffffffffffffffffffffffffff16145b91505092915050565b8273ffffffffffffffffffffffffffffffffffffffff166114f8826108e5565b73ffffffffffffffffffffffffffffffffffffffff161461154e576040517f08c379a0000000000000000000000000000000000000000000000000000000008152600401611545906129bb565b60405180910390fd5b600073ffffffffffffffffffffffffffffffffffffffff168273ffffffffffffffffffffffffffffffffffffffff1614156115be576040517f08c379a00000000000000000000000000000000000000000000000000000000081526004016115b590612a1b565b60405180910390fd5b6115c9838383611d8b565b6115d460008261137c565b6001600360008573ffffffffffffffffffffffffffffffffffffffff1673ffffffffffffffffffffffffffffffffffffffff16815260200190815260200160002060008282546116249190612d5e565b925050819055506001600360008473ffffffffffffffffffffffffffffffffffffffff1673ffffffffffffffffffffffffffffffffffffffff168152602001908152602001600020600082825461167b9190612cd7565b92505081905550816002600083815260200190815260200160002060006101000a81548173ffffffffffffffffffffffffffffffffffffffff021916908373ffffffffffffffffffffffffffffffffffffffff160217905550808273ffffffffffffffffffffffffffffffffffffffff168473ffffffffffffffffffffffffffffffffffffffff167fddf252ad1be2c89b69c2b068fc378daa952ba7f163c4a11628f55a4df523b3ef60405160405180910390a461173a838383611d90565b505050565b600073ffffffffffffffffffffffffffffffffffffffff168273ffffffffffffffffffffffffffffffffffffffff1614156117af576040517f08c379a00000000000000000000000000000000000000000000000000000000081526004016117a690612b3b565b60405180910390fd5b6117b881611d1f565b156117f8576040517f08c379a00000000000000000000000000000000000000000000000000000000081526004016117ef906129db565b60405180910390fd5b61180460008383611d8b565b6001600360008473ffffffffffffffffffffffffffffffffffffffff1673ffffffffffffffffffffffffffffffffffffffff16815260200190815260200160002060008282546118549190612cd7565b92505081905550816002600083815260200190815260200160002060006101000a81548173ffffffffffffffffffffffffffffffffffffffff021916908373ffffffffffffffffffffffffffffffffffffffff160217905550808273ffffffffffffffffffffffffffffffffffffffff16600073ffffffffffffffffffffffffffffffffffffffff167fddf252ad1be2c89b69c2b068fc378daa952ba7f163c4a11628f55a4df523b3ef60405160405180910390a461191560008383611d90565b5050565b61192282611d1f565b611961576040517f08c379a000000000000000000000000000000000000000000000000000000000815260040161195890612afb565b60405180910390fd5b806006600084815260200190815260200160002090805190602001906119889291906120fc565b505050565b8173ffffffffffffffffffffffffffffffffffffffff168373ffffffffffffffffffffffffffffffffffffffff1614156119fc576040517f08c379a00000000000000000000000000000000000000000000000000000000081526004016119f390612a3b565b60405180910390fd5b80600560008573ffffffffffffffffffffffffffffffffffffffff1673ffffffffffffffffffffffffffffffffffffffff16815260200190815260200160002060008473ffffffffffffffffffffffffffffffffffffffff1673ffffffffffffffffffffffffffffffffffffffff16815260200190815260200160002060006101000a81548160ff0219169083151502179055508173ffffffffffffffffffffffffffffffffffffffff168373ffffffffffffffffffffffffffffffffffffffff167f17307eab39ab6107e8899845ad3d59bd9653f200f220920489ca2b5937696c3183604051611aed919061295e565b60405180910390a3505050565b611b058484846114d8565b611b1184848484611d95565b611b50576040517f08c379a0000000000000000000000000000000000000000000000000000000008152600401611b479061299b565b60405180910390fd5b50505050565b606060405180602001604052806000815250905090565b6060611b7882611329565b6000611b82611b56565b90506000815111611ba25760405180602001604052806000815250611bcd565b80611bac84611f2c565b604051602001611bbd9291906128d3565b6040516020818303038152906040525b915050919050565b6001816000016000828254019250508190555050565b600760009054906101000a900473ffffffffffffffffffffffffffffffffffffffff1673ffffffffffffffffffffffffffffffffffffffff163373ffffffffffffffffffffffffffffffffffffffff1614611c4557600080fd5b60011515600c600084815260200190815260200160002060009054906101000a900460ff16151514158015611c8d57506000600d600084815260200190815260200160002054145b611ccc576040517f08c379a0000000000000000000000000000000000000000000000000000000008152600401611cc390612a5b565b60405180910390fd5b6001600c600084815260200190815260200160002060006101000a81548160ff0219169083151502179055508042611d049190612cd7565b600d6000848152602001908152602001600020819055505050565b60008073ffffffffffffffffffffffffffffffffffffffff166002600084815260200190815260200160002060009054906101000a900473ffffffffffffffffffffffffffffffffffffffff1673ffffffffffffffffffffffffffffffffffffffff1614159050919050565b505050565b505050565b6000611db68473ffffffffffffffffffffffffffffffffffffffff166120d9565b15611f1f578373ffffffffffffffffffffffffffffffffffffffff1663150b7a02611ddf611374565b8786866040518563ffffffff1660e01b8152600401611e019493929190612912565b602060405180830381600087803b158015611e1b57600080fd5b505af1925050508015611e4c57506040513d601f19601f82011682018060405250810190611e4991906124f7565b60015b611ecf573d8060008114611e7c576040519150601f19603f3d011682016040523d82523d6000602084013e611e81565b606091505b50600081511415611ec7576040517f08c379a0000000000000000000000000000000000000000000000000000000008152600401611ebe9061299b565b60405180910390fd5b805181602001fd5b63150b7a0260e01b7bffffffffffffffffffffffffffffffffffffffffffffffffffffffff1916817bffffffffffffffffffffffffffffffffffffffffffffffffffffffff191614915050611f24565b600190505b949350505050565b60606000821415611f74576040518060400160405280600181526020017f300000000000000000000000000000000000000000000000000000000000000081525090506120d4565b600082905060005b60008214611fa6578080611f8f90612eab565b915050600a82611f9f9190612d2d565b9150611f7c565b60008167ffffffffffffffff811115611fe8577f4e487b7100000000000000000000000000000000000000000000000000000000600052604160045260246000fd5b6040519080825280601f01601f19166020018201604052801561201a5781602001600182028036833780820191505090505b5090505b600085146120cd576001826120339190612d5e565b9150600a856120429190612ef4565b603061204e9190612cd7565b60f81b81838151811061208a577f4e487b7100000000000000000000000000000000000000000000000000000000600052603260045260246000fd5b60200101907effffffffffffffffffffffffffffffffffffffffffffffffffffffffffffff1916908160001a905350600a856120c69190612d2d565b945061201e565b8093505050505b919050565b6000808273ffffffffffffffffffffffffffffffffffffffff163b119050919050565b82805461210890612e48565b90600052602060002090601f01602090048101928261212a5760008555612171565b82601f1061214357805160ff1916838001178555612171565b82800160010185558215612171579182015b82811115612170578251825591602001919060010190612155565b5b50905061217e9190612182565b5090565b5b8082111561219b576000816000905550600101612183565b5090565b60006121b26121ad84612c32565b612c0d565b9050828152602081018484840111156121ca57600080fd5b6121d5848285612e06565b509392505050565b60006121f06121eb84612c63565b612c0d565b90508281526020810184848401111561220857600080fd5b612213848285612e06565b509392505050565b60008135905061222a81613427565b92915050565b60008135905061223f8161343e565b92915050565b60008135905061225481613455565b92915050565b60008151905061226981613455565b92915050565b600082601f83011261228057600080fd5b813561229084826020860161219f565b91505092915050565b600082601f8301126122aa57600080fd5b81356122ba8482602086016121dd565b91505092915050565b6000813590506122d28161346c565b92915050565b6000602082840312156122ea57600080fd5b60006122f88482850161221b565b91505092915050565b6000806040838503121561231457600080fd5b60006123228582860161221b565b92505060206123338582860161221b565b9150509250929050565b60008060006060848603121561235257600080fd5b60006123608682870161221b565b93505060206123718682870161221b565b9250506040612382868287016122c3565b9150509250925092565b600080600080608085870312156123a257600080fd5b60006123b08782880161221b565b94505060206123c18782880161221b565b93505060406123d2878288016122c3565b925050606085013567ffffffffffffffff8111156123ef57600080fd5b6123fb8782880161226f565b91505092959194509250565b6000806040838503121561241a57600080fd5b60006124288582860161221b565b925050602061243985828601612230565b9150509250929050565b6000806040838503121561245657600080fd5b60006124648582860161221b565b9250506020612475858286016122c3565b9150509250929050565b60008060006060848603121561249457600080fd5b60006124a28682870161221b565b93505060206124b3868287016122c3565b92505060406124c4868287016122c3565b9150509250925092565b6000602082840312156124e057600080fd5b60006124ee84828501612245565b91505092915050565b60006020828403121561250957600080fd5b60006125178482850161225a565b91505092915050565b60006020828403121561253257600080fd5b6000612540848285016122c3565b91505092915050565b60008060006060848603121561255e57600080fd5b600061256c868287016122c3565b935050602084013567ffffffffffffffff81111561258957600080fd5b61259586828701612299565b92505060406125a6868287016122c3565b9150509250925092565b6125b981612d92565b82525050565b6125c881612da4565b82525050565b60006125d982612c94565b6125e38185612caa565b93506125f3818560208601612e15565b6125fc81612fe1565b840191505092915050565b600061261282612c9f565b61261c8185612cbb565b935061262c818560208601612e15565b61263581612fe1565b840191505092915050565b600061264b82612c9f565b6126558185612ccc565b9350612665818560208601612e15565b80840191505092915050565b600061267e603283612cbb565b915061268982612ff2565b604082019050919050565b60006126a1602583612cbb565b91506126ac82613041565b604082019050919050565b60006126c4601c83612cbb565b91506126cf82613090565b602082019050919050565b60006126e7601a83612cbb565b91506126f2826130b9565b602082019050919050565b600061270a602483612cbb565b9150612715826130e2565b604082019050919050565b600061272d601983612cbb565b915061273882613131565b602082019050919050565b6000612750600d83612cbb565b915061275b8261315a565b602082019050919050565b6000612773600d83612cbb565b915061277e82613183565b602082019050919050565b6000612796602a83612cbb565b91506127a1826131ac565b604082019050919050565b60006127b9602983612cbb565b91506127c4826131fb565b604082019050919050565b60006127dc602183612cbb565b91506127e78261324a565b604082019050919050565b60006127ff602e83612cbb565b915061280a82613299565b604082019050919050565b6000612822603e83612cbb565b915061282d826132e8565b604082019050919050565b6000612845602083612cbb565b915061285082613337565b602082019050919050565b6000612868601883612cbb565b915061287382613360565b602082019050919050565b600061288b602183612cbb565b915061289682613389565b604082019050919050565b60006128ae602e83612cbb565b91506128b9826133d8565b604082019050919050565b6128cd81612dfc565b82525050565b60006128df8285612640565b91506128eb8284612640565b91508190509392505050565b600060208201905061290c60008301846125b0565b92915050565b600060808201905061292760008301876125b0565b61293460208301866125b0565b61294160408301856128c4565b818103606083015261295381846125ce565b905095945050505050565b600060208201905061297360008301846125bf565b92915050565b600060208201905081810360008301526129938184612607565b905092915050565b600060208201905081810360008301526129b481612671565b9050919050565b600060208201905081810360008301526129d481612694565b9050919050565b600060208201905081810360008301526129f4816126b7565b9050919050565b60006020820190508181036000830152612a14816126da565b9050919050565b60006020820190508181036000830152612a34816126fd565b9050919050565b60006020820190508181036000830152612a5481612720565b9050919050565b60006020820190508181036000830152612a7481612743565b9050919050565b60006020820190508181036000830152612a9481612766565b9050919050565b60006020820190508181036000830152612ab481612789565b9050919050565b60006020820190508181036000830152612ad4816127ac565b9050919050565b60006020820190508181036000830152612af4816127cf565b9050919050565b60006020820190508181036000830152612b14816127f2565b9050919050565b60006020820190508181036000830152612b3481612815565b9050919050565b60006020820190508181036000830152612b5481612838565b9050919050565b60006020820190508181036000830152612b748161285b565b9050919050565b60006020820190508181036000830152612b948161287e565b9050919050565b60006020820190508181036000830152612bb4816128a1565b9050919050565b6000602082019050612bd060008301846128c4565b92915050565b6000606082019050612beb60008301866128c4565b612bf860208301856128c4565b612c0560408301846128c4565b949350505050565b6000612c17612c28565b9050612c238282612e7a565b919050565b6000604051905090565b600067ffffffffffffffff821115612c4d57612c4c612fb2565b5b612c5682612fe1565b9050602081019050919050565b600067ffffffffffffffff821115612c7e57612c7d612fb2565b5b612c8782612fe1565b9050602081019050919050565b600081519050919050565b600081519050919050565b600082825260208201905092915050565b600082825260208201905092915050565b600081905092915050565b6000612ce282612dfc565b9150612ced83612dfc565b9250827fffffffffffffffffffffffffffffffffffffffffffffffffffffffffffffffff03821115612d2257612d21612f25565b5b828201905092915050565b6000612d3882612dfc565b9150612d4383612dfc565b925082612d5357612d52612f54565b5b828204905092915050565b6000612d6982612dfc565b9150612d7483612dfc565b925082821015612d8757612d86612f25565b5b828203905092915050565b6000612d9d82612ddc565b9050919050565b60008115159050919050565b60007fffffffff0000000000000000000000000000000000000000000000000000000082169050919050565b600073ffffffffffffffffffffffffffffffffffffffff82169050919050565b6000819050919050565b82818337600083830152505050565b60005b83811015612e33578082015181840152602081019050612e18565b83811115612e42576000848401525b50505050565b60006002820490506001821680612e6057607f821691505b60208210811415612e7457612e73612f83565b5b50919050565b612e8382612fe1565b810181811067ffffffffffffffff82111715612ea257612ea1612fb2565b5b80604052505050565b6000612eb682612dfc565b91507fffffffffffffffffffffffffffffffffffffffffffffffffffffffffffffffff821415612ee957612ee8612f25565b5b600182019050919050565b6000612eff82612dfc565b9150612f0a83612dfc565b925082612f1a57612f19612f54565b5b828206905092915050565b7f4e487b7100000000000000000000000000000000000000000000000000000000600052601160045260246000fd5b7f4e487b7100000000000000000000000000000000000000000000000000000000600052601260045260246000fd5b7f4e487b7100000000000000000000000000000000000000000000000000000000600052602260045260246000fd5b7f4e487b7100000000000000000000000000000000000000000000000000000000600052604160045260246000fd5b6000601f19601f8301169050919050565b7f4552433732313a207472616e7366657220746f206e6f6e20455243373231526560008201527f63656976657220696d706c656d656e7465720000000000000000000000000000602082015250565b7f4552433732313a207472616e736665722066726f6d20696e636f72726563742060008201527f6f776e6572000000000000000000000000000000000000000000000000000000602082015250565b7f4552433732313a20746f6b656e20616c7265616479206d696e74656400000000600082015250565b7f77617272616e74792069732069737375656420616c7265616479000000000000600082015250565b7f4552433732313a207472616e7366657220746f20746865207a65726f2061646460008201527f7265737300000000000000000000000000000000000000000000000000000000602082015250565b7f4552433732313a20617070726f766520746f2063616c6c657200000000000000600082015250565b7f616c72656164792076616c696400000000000000000000000000000000000000600082015250565b7f76616c6964697479206f76657200000000000000000000000000000000000000600082015250565b7f4e4f2077617272616e74792069732069737375656420746f20796f7520666f7260008201527f2074686174206974656d00000000000000000000000000000000000000000000602082015250565b7f4552433732313a2061646472657373207a65726f206973206e6f74206120766160008201527f6c6964206f776e65720000000000000000000000000000000000000000000000602082015250565b7f796f7520617265206e6f7420746865206f776e6572206f662074686973206e6660008201527f7400000000000000000000000000000000000000000000000000000000000000602082015250565b7f45524337323155524953746f726167653a2055524920736574206f66206e6f6e60008201527f6578697374656e7420746f6b656e000000000000000000000000000000000000602082015250565b7f4552433732313a20617070726f76652063616c6c6572206973206e6f7420746f60008201527f6b656e206f776e6572206e6f7220617070726f76656420666f7220616c6c0000602082015250565b7f4552433732313a206d696e7420746f20746865207a65726f2061646472657373600082015250565b7f4552433732313a20696e76616c696420746f6b656e2049440000000000000000600082015250565b7f4552433732313a20617070726f76616c20746f2063757272656e74206f776e6560008201527f7200000000000000000000000000000000000000000000000000000000000000602082015250565b7f4552433732313a2063616c6c6572206973206e6f7420746f6b656e206f776e6560008201527f72206e6f7220617070726f766564000000000000000000000000000000000000602082015250565b61343081612d92565b811461343b57600080fd5b50565b61344781612da4565b811461345257600080fd5b50565b61345e81612db0565b811461346957600080fd5b50565b61347581612dfc565b811461348057600080fd5b5056fea2646970667358221220d4b017fc1b039b80bcf861f048b3b2bd9e58402f9912f6c29d6452f92d39061964736f6c63430008010033",
  "immutableReferences": {},
  "source": "// SPDX-License-Identifier: MIT\r\n\r\npragma solidity ^0.8.1;\r\n\r\nimport \"@openzeppelin/contracts/token/ERC721/extensions/ERC721URIStorage.sol\"; //using ERC721  as a base Standard(after removing the transfer and safe_transfer we can make a soulbound nft )\r\nimport \"@openzeppelin/contracts/utils/Counters.sol\"; // uisng counters to take a record of how much nft minted/Degree issued\r\n\r\ncontract Warranty is ERC721URIStorage {\r\n    address public Shop_owner;\r\n\r\n    using Counters for Counters.Counter;\r\n    Counters.Counter public tokenId;\r\n\r\n    // here ERC721 constructor({collection_name} ,{collection_symbol}) call first then our contract's constructor\r\n    constructor() ERC721(\"WarrantyNFT\", \"WNFT\") {\r\n        Shop_owner = msg.sender;\r\n    }\r\n\r\n    // modifier that only owner can call that particular func\r\n    modifier OwnerOnly() {\r\n        require(msg.sender == Shop_owner);\r\n        _;\r\n    }\r\n\r\n    // warranty issued to specific address fro a specific serial number item\r\n    mapping(address => mapping(uint256 => bool)) public warrantyIssuedTo;\r\n\r\n    mapping(uint256 => address) public tokenIdToPerson; // who one a specific token id\r\n\r\n    mapping(uint256 => string) public tokenIdTotokenURI; // store torkenuri of each id\r\n\r\n    mapping(uint256 => bool) public isValid; // any nft of specific id is valid or not\r\n\r\n    mapping(uint256 => uint256) public validTill; // any nft of specific id is valid till\r\n\r\n    //event for warrantyissue func\r\n    event WarrantyIssue(\r\n        address indexed _to,\r\n        uint256 _serialID,\r\n        uint256 _validTill,\r\n        uint256 _tokenId\r\n    );\r\n\r\n    // owner can issue the nft  to a user for a specific product and return that issued id\r\n    function warrantyIssue(\r\n        address _to,\r\n        uint256 _serialID,\r\n        uint256 _validTill\r\n    ) external OwnerOnly returns (uint256) {\r\n        require(\r\n            warrantyIssuedTo[_to][_serialID] != true,\r\n            \"warranty is issued already\"\r\n        );\r\n        warrantyIssuedTo[_to][_serialID] = true;\r\n        tokenId.increment(); //now not zero\r\n        tokenIdToPerson[tokenId.current()] = _to; // setting the tokenId mapping\r\n        validityIssue(tokenId.current(), _validTill); // issuing the validity\r\n\r\n        emit WarrantyIssue(_to, _serialID, _validTill, tokenId.current());\r\n        return tokenId.current();\r\n    }\r\n\r\n    // set the validity and and validtill( in sec) for any token Id;\r\n    function validityIssue(uint256 _tokenId, uint256 _validTill)\r\n        internal\r\n        OwnerOnly\r\n    {\r\n        require(\r\n            isValid[_tokenId] != true && validTill[_tokenId] == 0,\r\n            \"already valid\"\r\n        );\r\n\r\n        isValid[_tokenId] = true;\r\n        validTill[_tokenId] = block.timestamp + _validTill;\r\n    }\r\n\r\n    // user can claim his/her nft by adding the tokenID and tokenURI\r\n    function claimWarranty(\r\n        uint256 _tokenId,\r\n        string memory _tokenURI,\r\n        uint256 _serialID\r\n    ) public returns (bool) {\r\n        require(\r\n            tokenIdToPerson[_tokenId] == msg.sender,\r\n            \"you are not the owner of this nft\"\r\n        );\r\n        require(\r\n            warrantyIssuedTo[msg.sender][_serialID] == true,\r\n            \"NO warranty is issued to you for that item\"\r\n        );\r\n        require(validTill[_tokenId] <= block.timestamp, \"validity over\");\r\n\r\n        _mint(msg.sender, _tokenId); // address , tokenId\r\n        _setTokenURI(_tokenId, _tokenURI);\r\n        tokenIdTotokenURI[_tokenId] = _tokenURI;\r\n\r\n        warrantyIssuedTo[msg.sender][_serialID] = false; // not mint twice\r\n\r\n        return true; // Id of the minted NFT\r\n    }\r\n\r\n    // function for checking the valid time for all  nfts and this function is called by gelato every specific interval\r\n    function checkValid() public {\r\n        for (uint256 i = 1; i <= tokenId.current(); i++) {\r\n            if (validTill[i] >= block.timestamp) {} else {\r\n                isValid[i] = false;\r\n            }\r\n        }\r\n    }\r\n}\r\n",
  "sourcePath": "E:/Web3 dev/warranty/src/contracts/Warranty.sol",
  "compiler": {
    "name": "solc",
    "version": "0.8.1+commit.df193b15.Emscripten.clang"
  },
  "schemaVersion": "3.2.3",
  "updatedAt": "2022-07-27T20:18:07.284Z",
  "networkType": "ethereum",
  "devdoc": {
    "kind": "dev",
    "methods": {
      "approve(address,uint256)": {
        "details": "See {IERC721-approve}."
      },
      "balanceOf(address)": {
        "details": "See {IERC721-balanceOf}."
      },
      "getApproved(uint256)": {
        "details": "See {IERC721-getApproved}."
      },
      "isApprovedForAll(address,address)": {
        "details": "See {IERC721-isApprovedForAll}."
      },
      "name()": {
        "details": "See {IERC721Metadata-name}."
      },
      "ownerOf(uint256)": {
        "details": "See {IERC721-ownerOf}."
      },
      "safeTransferFrom(address,address,uint256)": {
        "details": "See {IERC721-safeTransferFrom}."
      },
      "safeTransferFrom(address,address,uint256,bytes)": {
        "details": "See {IERC721-safeTransferFrom}."
      },
      "setApprovalForAll(address,bool)": {
        "details": "See {IERC721-setApprovalForAll}."
      },
      "supportsInterface(bytes4)": {
        "details": "See {IERC165-supportsInterface}."
      },
      "symbol()": {
        "details": "See {IERC721Metadata-symbol}."
      },
      "tokenURI(uint256)": {
        "details": "See {IERC721Metadata-tokenURI}."
      },
      "transferFrom(address,address,uint256)": {
        "details": "See {IERC721-transferFrom}."
      }
    },
    "version": 1
  },
  "userdoc": {
    "kind": "user",
    "methods": {},
    "version": 1
  }
}