{
  "contractName": "Warranty",
  "abi": [
    {
      "inputs": [],
      "stateMutability": "nonpayable",
      "type": "constructor"
    },
    {
      "anonymous": false,
      "inputs": [
        {
          "indexed": true,
          "internalType": "address",
          "name": "owner",
          "type": "address"
        },
        {
          "indexed": true,
          "internalType": "address",
          "name": "approved",
          "type": "address"
        },
        {
          "indexed": true,
          "internalType": "uint256",
          "name": "tokenId",
          "type": "uint256"
        }
      ],
      "name": "Approval",
      "type": "event"
    },
    {
      "anonymous": false,
      "inputs": [
        {
          "indexed": true,
          "internalType": "address",
          "name": "owner",
          "type": "address"
        },
        {
          "indexed": true,
          "internalType": "address",
          "name": "operator",
          "type": "address"
        },
        {
          "indexed": false,
          "internalType": "bool",
          "name": "approved",
          "type": "bool"
        }
      ],
      "name": "ApprovalForAll",
      "type": "event"
    },
    {
      "anonymous": false,
      "inputs": [
        {
          "indexed": true,
          "internalType": "address",
          "name": "_from",
          "type": "address"
        },
        {
          "indexed": false,
          "internalType": "uint256",
          "name": "_tokenId",
          "type": "uint256"
        },
        {
          "indexed": false,
          "internalType": "string",
          "name": "_tokenURI",
          "type": "string"
        },
        {
          "indexed": false,
          "internalType": "uint256",
          "name": "_serialID",
          "type": "uint256"
        },
        {
          "indexed": false,
          "internalType": "uint256",
          "name": "_time",
          "type": "uint256"
        }
      ],
      "name": "ClaimWarranty",
      "type": "event"
    },
    {
      "anonymous": false,
      "inputs": [
        {
          "indexed": true,
          "internalType": "address",
          "name": "from",
          "type": "address"
        },
        {
          "indexed": true,
          "internalType": "address",
          "name": "to",
          "type": "address"
        },
        {
          "indexed": true,
          "internalType": "uint256",
          "name": "tokenId",
          "type": "uint256"
        }
      ],
      "name": "Transfer",
      "type": "event"
    },
    {
      "anonymous": false,
      "inputs": [
        {
          "indexed": true,
          "internalType": "address",
          "name": "_to",
          "type": "address"
        },
        {
          "indexed": false,
          "internalType": "uint256",
          "name": "_serialID",
          "type": "uint256"
        },
        {
          "indexed": false,
          "internalType": "uint256",
          "name": "_validTill",
          "type": "uint256"
        },
        {
          "indexed": false,
          "internalType": "uint256",
          "name": "_tokenId",
          "type": "uint256"
        },
        {
          "indexed": false,
          "internalType": "uint256",
          "name": "_time",
          "type": "uint256"
        }
      ],
      "name": "WarrantyIssue",
      "type": "event"
    },
    {
      "inputs": [],
      "name": "Shop_owner",
      "outputs": [
        {
          "internalType": "address",
          "name": "",
          "type": "address"
        }
      ],
      "stateMutability": "view",
      "type": "function",
      "constant": true
    },
    {
      "inputs": [
        {
          "internalType": "address",
          "name": "to",
          "type": "address"
        },
        {
          "internalType": "uint256",
          "name": "tokenId",
          "type": "uint256"
        }
      ],
      "name": "approve",
      "outputs": [],
      "stateMutability": "nonpayable",
      "type": "function"
    },
    {
      "inputs": [
        {
          "internalType": "address",
          "name": "owner",
          "type": "address"
        }
      ],
      "name": "balanceOf",
      "outputs": [
        {
          "internalType": "uint256",
          "name": "",
          "type": "uint256"
        }
      ],
      "stateMutability": "view",
      "type": "function",
      "constant": true
    },
    {
      "inputs": [
        {
          "internalType": "uint256",
          "name": "tokenId",
          "type": "uint256"
        }
      ],
      "name": "getApproved",
      "outputs": [
        {
          "internalType": "address",
          "name": "",
          "type": "address"
        }
      ],
      "stateMutability": "view",
      "type": "function",
      "constant": true
    },
    {
      "inputs": [
        {
          "internalType": "address",
          "name": "owner",
          "type": "address"
        },
        {
          "internalType": "address",
          "name": "operator",
          "type": "address"
        }
      ],
      "name": "isApprovedForAll",
      "outputs": [
        {
          "internalType": "bool",
          "name": "",
          "type": "bool"
        }
      ],
      "stateMutability": "view",
      "type": "function",
      "constant": true
    },
    {
      "inputs": [
        {
          "internalType": "uint256",
          "name": "",
          "type": "uint256"
        }
      ],
      "name": "isValid",
      "outputs": [
        {
          "internalType": "bool",
          "name": "",
          "type": "bool"
        }
      ],
      "stateMutability": "view",
      "type": "function",
      "constant": true
    },
    {
      "inputs": [],
      "name": "name",
      "outputs": [
        {
          "internalType": "string",
          "name": "",
          "type": "string"
        }
      ],
      "stateMutability": "view",
      "type": "function",
      "constant": true
    },
    {
      "inputs": [
        {
          "internalType": "uint256",
          "name": "tokenId",
          "type": "uint256"
        }
      ],
      "name": "ownerOf",
      "outputs": [
        {
          "internalType": "address",
          "name": "",
          "type": "address"
        }
      ],
      "stateMutability": "view",
      "type": "function",
      "constant": true
    },
    {
      "inputs": [
        {
          "internalType": "address",
          "name": "from",
          "type": "address"
        },
        {
          "internalType": "address",
          "name": "to",
          "type": "address"
        },
        {
          "internalType": "uint256",
          "name": "tokenId",
          "type": "uint256"
        }
      ],
      "name": "safeTransferFrom",
      "outputs": [],
      "stateMutability": "nonpayable",
      "type": "function"
    },
    {
      "inputs": [
        {
          "internalType": "address",
          "name": "from",
          "type": "address"
        },
        {
          "internalType": "address",
          "name": "to",
          "type": "address"
        },
        {
          "internalType": "uint256",
          "name": "tokenId",
          "type": "uint256"
        },
        {
          "internalType": "bytes",
          "name": "data",
          "type": "bytes"
        }
      ],
      "name": "safeTransferFrom",
      "outputs": [],
      "stateMutability": "nonpayable",
      "type": "function"
    },
    {
      "inputs": [
        {
          "internalType": "address",
          "name": "operator",
          "type": "address"
        },
        {
          "internalType": "bool",
          "name": "approved",
          "type": "bool"
        }
      ],
      "name": "setApprovalForAll",
      "outputs": [],
      "stateMutability": "nonpayable",
      "type": "function"
    },
    {
      "inputs": [
        {
          "internalType": "bytes4",
          "name": "interfaceId",
          "type": "bytes4"
        }
      ],
      "name": "supportsInterface",
      "outputs": [
        {
          "internalType": "bool",
          "name": "",
          "type": "bool"
        }
      ],
      "stateMutability": "view",
      "type": "function",
      "constant": true
    },
    {
      "inputs": [],
      "name": "symbol",
      "outputs": [
        {
          "internalType": "string",
          "name": "",
          "type": "string"
        }
      ],
      "stateMutability": "view",
      "type": "function",
      "constant": true
    },
    {
      "inputs": [],
      "name": "tokenId",
      "outputs": [
        {
          "internalType": "uint256",
          "name": "_value",
          "type": "uint256"
        }
      ],
      "stateMutability": "view",
      "type": "function",
      "constant": true
    },
    {
      "inputs": [
        {
          "internalType": "uint256",
          "name": "",
          "type": "uint256"
        }
      ],
      "name": "tokenIdToPerson",
      "outputs": [
        {
          "internalType": "address",
          "name": "",
          "type": "address"
        }
      ],
      "stateMutability": "view",
      "type": "function",
      "constant": true
    },
    {
      "inputs": [
        {
          "internalType": "uint256",
          "name": "",
          "type": "uint256"
        }
      ],
      "name": "tokenIdTotokenURI",
      "outputs": [
        {
          "internalType": "string",
          "name": "",
          "type": "string"
        }
      ],
      "stateMutability": "view",
      "type": "function",
      "constant": true
    },
    {
      "inputs": [
        {
          "internalType": "uint256",
          "name": "tokenId",
          "type": "uint256"
        }
      ],
      "name": "tokenURI",
      "outputs": [
        {
          "internalType": "string",
          "name": "",
          "type": "string"
        }
      ],
      "stateMutability": "view",
      "type": "function",
      "constant": true
    },
    {
      "inputs": [
        {
          "internalType": "address",
          "name": "from",
          "type": "address"
        },
        {
          "internalType": "address",
          "name": "to",
          "type": "address"
        },
        {
          "internalType": "uint256",
          "name": "tokenId",
          "type": "uint256"
        }
      ],
      "name": "transferFrom",
      "outputs": [],
      "stateMutability": "nonpayable",
      "type": "function"
    },
    {
      "inputs": [
        {
          "internalType": "uint256",
          "name": "",
          "type": "uint256"
        }
      ],
      "name": "validTill",
      "outputs": [
        {
          "internalType": "uint256",
          "name": "",
          "type": "uint256"
        }
      ],
      "stateMutability": "view",
      "type": "function",
      "constant": true
    },
    {
      "inputs": [
        {
          "internalType": "address",
          "name": "",
          "type": "address"
        },
        {
          "internalType": "uint256",
          "name": "",
          "type": "uint256"
        }
      ],
      "name": "warrantyIssuedTo",
      "outputs": [
        {
          "internalType": "bool",
          "name": "",
          "type": "bool"
        }
      ],
      "stateMutability": "view",
      "type": "function",
      "constant": true
    },
    {
      "inputs": [
        {
          "internalType": "address",
          "name": "_to",
          "type": "address"
        },
        {
          "internalType": "uint256",
          "name": "_serialID",
          "type": "uint256"
        },
        {
          "internalType": "uint256",
          "name": "_validTill",
          "type": "uint256"
        }
      ],
      "name": "warrantyIssue",
      "outputs": [
        {
          "internalType": "uint256",
          "name": "",
          "type": "uint256"
        }
      ],
      "stateMutability": "nonpayable",
      "type": "function"
    },
    {
      "inputs": [
        {
          "internalType": "uint256",
          "name": "_tokenId",
          "type": "uint256"
        },
        {
          "internalType": "string",
          "name": "_tokenURI",
          "type": "string"
        },
        {
          "internalType": "uint256",
          "name": "_serialID",
          "type": "uint256"
        }
      ],
      "name": "claimWarranty",
      "outputs": [
        {
          "internalType": "bool",
          "name": "",
          "type": "bool"
        }
      ],
      "stateMutability": "nonpayable",
      "type": "function"
    },
    {
      "inputs": [],
      "name": "checkValid",
      "outputs": [],
      "stateMutability": "nonpayable",
      "type": "function"
    }
  ],
  "bytecode": "0x60806040523480156200001157600080fd5b506040518060400160405280600b81526020017f57617272616e74794e46540000000000000000000000000000000000000000008152506040518060400160405280600481526020017f574e465400000000000000000000000000000000000000000000000000000000815250816000908051906020019062000096929190620000f9565b508060019080519060200190620000af929190620000f9565b50505033600760006101000a81548173ffffffffffffffffffffffffffffffffffffffff021916908373ffffffffffffffffffffffffffffffffffffffff1602179055506200020e565b8280546200010790620001a9565b90600052602060002090601f0160209004810192826200012b576000855562000177565b82601f106200014657805160ff191683800117855562000177565b8280016001018555821562000177579182015b828111156200017657825182559160200191906001019062000159565b5b5090506200018691906200018a565b5090565b5b80821115620001a55760008160009055506001016200018b565b5090565b60006002820490506001821680620001c257607f821691505b60208210811415620001d957620001d8620001df565b5b50919050565b7f4e487b7100000000000000000000000000000000000000000000000000000000600052602260045260246000fd5b613619806200021e6000396000f3fe608060405234801561001057600080fd5b506004361061014d5760003560e01c8063690a76bf116100c3578063a22cb4651161007c578063a22cb465146103d8578063b88d4fde146103f4578063c87b56dd14610410578063da42613a14610440578063e985e9c514610470578063f577a500146104a05761014d565b8063690a76bf146102ca57806370a08231146102fa5780637c5009151461032a578063858ca1441461035a57806395d89b411461038a578063a1f5aab9146103a85761014d565b806317d70f7c1161011557806317d70f7c1461021c5780631b9874441461023a57806323b872dd1461024457806342842e0e146102605780634f243fcd1461027c5780636352211e1461029a5761014d565b806301ffc9a71461015257806306fdde0314610182578063081812fc146101a0578063095ea7b3146101d05780631067e2ab146101ec575b600080fd5b61016c60048036038101906101679190612568565b6104d0565b6040516101799190612a1b565b60405180910390f35b61018a6105b2565b6040516101979190612a36565b60405180910390f35b6101ba60048036038101906101b591906125ba565b610644565b6040516101c791906129b4565b60405180910390f35b6101ea60048036038101906101e591906124dd565b61068a565b005b610206600480360381019061020191906125ba565b6107a2565b6040516102139190612c98565b60405180910390f35b6102246107ba565b6040516102319190612c98565b60405180910390f35b6102426107c6565b005b61025e600480360381019061025991906123d7565b61083f565b005b61027a600480360381019061027591906123d7565b61089f565b005b6102846108bf565b60405161029191906129b4565b60405180910390f35b6102b460048036038101906102af91906125ba565b6108e5565b6040516102c191906129b4565b60405180910390f35b6102e460048036038101906102df91906125ba565b610997565b6040516102f191906129b4565b60405180910390f35b610314600480360381019061030f9190612372565b6109ca565b6040516103219190612c98565b60405180910390f35b610344600480360381019061033f91906124dd565b610a82565b6040516103519190612a1b565b60405180910390f35b610374600480360381019061036f91906125e3565b610ab1565b6040516103819190612a1b565b60405180910390f35b610392610d96565b60405161039f9190612a36565b60405180910390f35b6103c260048036038101906103bd91906125ba565b610e28565b6040516103cf9190612a36565b60405180910390f35b6103f260048036038101906103ed91906124a1565b610ec8565b005b61040e60048036038101906104099190612426565b610ede565b005b61042a600480360381019061042591906125ba565b610f40565b6040516104379190612a36565b60405180910390f35b61045a60048036038101906104559190612519565b611053565b6040516104679190612c98565b60405180910390f35b61048a6004803603810190610485919061239b565b6112a5565b6040516104979190612a1b565b60405180910390f35b6104ba60048036038101906104b591906125ba565b611339565b6040516104c79190612a1b565b60405180910390f35b60007f80ac58cd000000000000000000000000000000000000000000000000000000007bffffffffffffffffffffffffffffffffffffffffffffffffffffffff1916827bffffffffffffffffffffffffffffffffffffffffffffffffffffffff1916148061059b57507f5b5e139f000000000000000000000000000000000000000000000000000000007bffffffffffffffffffffffffffffffffffffffffffffffffffffffff1916827bffffffffffffffffffffffffffffffffffffffffffffffffffffffff1916145b806105ab57506105aa82611359565b5b9050919050565b6060600080546105c190612f7f565b80601f01602080910402602001604051908101604052809291908181526020018280546105ed90612f7f565b801561063a5780601f1061060f5761010080835404028352916020019161063a565b820191906000526020600020905b81548152906001019060200180831161061d57829003601f168201915b5050505050905090565b600061064f826113c3565b6004600083815260200190815260200160002060009054906101000a900473ffffffffffffffffffffffffffffffffffffffff169050919050565b6000610695826108e5565b90508073ffffffffffffffffffffffffffffffffffffffff168373ffffffffffffffffffffffffffffffffffffffff161415610706576040517f08c379a00000000000000000000000000000000000000000000000000000000081526004016106fd90612c58565b60405180910390fd5b8073ffffffffffffffffffffffffffffffffffffffff1661072561140e565b73ffffffffffffffffffffffffffffffffffffffff16148061075457506107538161074e61140e565b6112a5565b5b610793576040517f08c379a000000000000000000000000000000000000000000000000000000000815260040161078a90612bf8565b60405180910390fd5b61079d8383611416565b505050565b600d6020528060005260406000206000915090505481565b60088060000154905081565b6000600190505b6107d760086114cf565b811161083c5742600d600083815260200190815260200160002054106107fc57610829565b6000600c600083815260200190815260200160002060006101000a81548160ff0219169083151502179055505b808061083490612fe2565b9150506107cd565b50565b61085061084a61140e565b826114dd565b61088f576040517f08c379a000000000000000000000000000000000000000000000000000000000815260040161088690612c78565b60405180910390fd5b61089a838383611572565b505050565b6108ba83838360405180602001604052806000815250610ede565b505050565b600760009054906101000a900473ffffffffffffffffffffffffffffffffffffffff1681565b6000806002600084815260200190815260200160002060009054906101000a900473ffffffffffffffffffffffffffffffffffffffff169050600073ffffffffffffffffffffffffffffffffffffffff168173ffffffffffffffffffffffffffffffffffffffff16141561098e576040517f08c379a000000000000000000000000000000000000000000000000000000000815260040161098590612c38565b60405180910390fd5b80915050919050565b600a6020528060005260406000206000915054906101000a900473ffffffffffffffffffffffffffffffffffffffff1681565b60008073ffffffffffffffffffffffffffffffffffffffff168273ffffffffffffffffffffffffffffffffffffffff161415610a3b576040517f08c379a0000000000000000000000000000000000000000000000000000000008152600401610a3290612b98565b60405180910390fd5b600360008373ffffffffffffffffffffffffffffffffffffffff1673ffffffffffffffffffffffffffffffffffffffff168152602001908152602001600020549050919050565b60096020528160005260406000206020528060005260406000206000915091509054906101000a900460ff1681565b60006042835111610af7576040517f08c379a0000000000000000000000000000000000000000000000000000000008152600401610aee90612a58565b60405180910390fd5b3373ffffffffffffffffffffffffffffffffffffffff16600a600086815260200190815260200160002060009054906101000a900473ffffffffffffffffffffffffffffffffffffffff1673ffffffffffffffffffffffffffffffffffffffff1614610b98576040517f08c379a0000000000000000000000000000000000000000000000000000000008152600401610b8f90612bb8565b60405180910390fd5b60011515600960003373ffffffffffffffffffffffffffffffffffffffff1673ffffffffffffffffffffffffffffffffffffffff168152602001908152602001600020600084815260200190815260200160002060009054906101000a900460ff16151514610c3c576040517f08c379a0000000000000000000000000000000000000000000000000000000008152600401610c3390612b78565b60405180910390fd5b42600d6000868152602001908152602001600020541015610c92576040517f08c379a0000000000000000000000000000000000000000000000000000000008152600401610c8990612b58565b60405180910390fd5b610c9c33856117d9565b610ca684846119b3565b82600b60008681526020019081526020016000209080519060200190610ccd929190612196565b506000600960003373ffffffffffffffffffffffffffffffffffffffff1673ffffffffffffffffffffffffffffffffffffffff168152602001908152602001600020600084815260200190815260200160002060006101000a81548160ff0219169083151502179055503373ffffffffffffffffffffffffffffffffffffffff167fcab2de5c8b939455bc458144abaabb76bf6b2241a430152a0d9e8691802f861885858542604051610d839493929190612cb3565b60405180910390a2600190509392505050565b606060018054610da590612f7f565b80601f0160208091040260200160405190810160405280929190818152602001828054610dd190612f7f565b8015610e1e5780601f10610df357610100808354040283529160200191610e1e565b820191906000526020600020905b815481529060010190602001808311610e0157829003601f168201915b5050505050905090565b600b6020528060005260406000206000915090508054610e4790612f7f565b80601f0160208091040260200160405190810160405280929190818152602001828054610e7390612f7f565b8015610ec05780601f10610e9557610100808354040283529160200191610ec0565b820191906000526020600020905b815481529060010190602001808311610ea357829003601f168201915b505050505081565b610eda610ed361140e565b8383611a27565b5050565b610eef610ee961140e565b836114dd565b610f2e576040517f08c379a0000000000000000000000000000000000000000000000000000000008152600401610f2590612c78565b60405180910390fd5b610f3a84848484611b94565b50505050565b6060610f4b826113c3565b6000600660008481526020019081526020016000208054610f6b90612f7f565b80601f0160208091040260200160405190810160405280929190818152602001828054610f9790612f7f565b8015610fe45780601f10610fb957610100808354040283529160200191610fe4565b820191906000526020600020905b815481529060010190602001808311610fc757829003601f168201915b505050505090506000610ff5611bf0565b905060008151141561100b57819250505061104e565b600082511115611040578082604051602001611028929190612990565b6040516020818303038152906040529250505061104e565b61104984611c07565b925050505b919050565b6000600760009054906101000a900473ffffffffffffffffffffffffffffffffffffffff1673ffffffffffffffffffffffffffffffffffffffff163373ffffffffffffffffffffffffffffffffffffffff16146110af57600080fd5b60011515600960008673ffffffffffffffffffffffffffffffffffffffff1673ffffffffffffffffffffffffffffffffffffffff168152602001908152602001600020600085815260200190815260200160002060009054906101000a900460ff1615151415611154576040517f08c379a000000000000000000000000000000000000000000000000000000000815260040161114b90612ad8565b60405180910390fd5b6001600960008673ffffffffffffffffffffffffffffffffffffffff1673ffffffffffffffffffffffffffffffffffffffff168152602001908152602001600020600085815260200190815260200160002060006101000a81548160ff0219169083151502179055506111c76008611c6f565b83600a60006111d660086114cf565b815260200190815260200160002060006101000a81548173ffffffffffffffffffffffffffffffffffffffff021916908373ffffffffffffffffffffffffffffffffffffffff16021790555061123561122f60086114cf565b83611c85565b8373ffffffffffffffffffffffffffffffffffffffff167fc8e443dd670d7a47a12521f9f3a60c167410d080f9d4447dbfa37e7486d5b895848461127960086114cf565b4260405161128a9493929190612cff565b60405180910390a261129c60086114cf565b90509392505050565b6000600560008473ffffffffffffffffffffffffffffffffffffffff1673ffffffffffffffffffffffffffffffffffffffff16815260200190815260200160002060008373ffffffffffffffffffffffffffffffffffffffff1673ffffffffffffffffffffffffffffffffffffffff16815260200190815260200160002060009054906101000a900460ff16905092915050565b600c6020528060005260406000206000915054906101000a900460ff1681565b60007f01ffc9a7000000000000000000000000000000000000000000000000000000007bffffffffffffffffffffffffffffffffffffffffffffffffffffffff1916827bffffffffffffffffffffffffffffffffffffffffffffffffffffffff1916149050919050565b6113cc81611db9565b61140b576040517f08c379a000000000000000000000000000000000000000000000000000000000815260040161140290612c38565b60405180910390fd5b50565b600033905090565b816004600083815260200190815260200160002060006101000a81548173ffffffffffffffffffffffffffffffffffffffff021916908373ffffffffffffffffffffffffffffffffffffffff160217905550808273ffffffffffffffffffffffffffffffffffffffff16611489836108e5565b73ffffffffffffffffffffffffffffffffffffffff167f8c5be1e5ebec7d5bd14f71427d1e84f3dd0314c0f7b2291e5b200ac8c7c3b92560405160405180910390a45050565b600081600001549050919050565b6000806114e9836108e5565b90508073ffffffffffffffffffffffffffffffffffffffff168473ffffffffffffffffffffffffffffffffffffffff16148061152b575061152a81856112a5565b5b8061156957508373ffffffffffffffffffffffffffffffffffffffff1661155184610644565b73ffffffffffffffffffffffffffffffffffffffff16145b91505092915050565b8273ffffffffffffffffffffffffffffffffffffffff16611592826108e5565b73ffffffffffffffffffffffffffffffffffffffff16146115e8576040517f08c379a00000000000000000000000000000000000000000000000000000000081526004016115df90612a98565b60405180910390fd5b600073ffffffffffffffffffffffffffffffffffffffff168273ffffffffffffffffffffffffffffffffffffffff161415611658576040517f08c379a000000000000000000000000000000000000000000000000000000000815260040161164f90612af8565b60405180910390fd5b611663838383611e25565b61166e600082611416565b6001600360008573ffffffffffffffffffffffffffffffffffffffff1673ffffffffffffffffffffffffffffffffffffffff16815260200190815260200160002060008282546116be9190612e95565b925050819055506001600360008473ffffffffffffffffffffffffffffffffffffffff1673ffffffffffffffffffffffffffffffffffffffff16815260200190815260200160002060008282546117159190612e0e565b92505081905550816002600083815260200190815260200160002060006101000a81548173ffffffffffffffffffffffffffffffffffffffff021916908373ffffffffffffffffffffffffffffffffffffffff160217905550808273ffffffffffffffffffffffffffffffffffffffff168473ffffffffffffffffffffffffffffffffffffffff167fddf252ad1be2c89b69c2b068fc378daa952ba7f163c4a11628f55a4df523b3ef60405160405180910390a46117d4838383611e2a565b505050565b600073ffffffffffffffffffffffffffffffffffffffff168273ffffffffffffffffffffffffffffffffffffffff161415611849576040517f08c379a000000000000000000000000000000000000000000000000000000000815260040161184090612c18565b60405180910390fd5b61185281611db9565b15611892576040517f08c379a000000000000000000000000000000000000000000000000000000000815260040161188990612ab8565b60405180910390fd5b61189e60008383611e25565b6001600360008473ffffffffffffffffffffffffffffffffffffffff1673ffffffffffffffffffffffffffffffffffffffff16815260200190815260200160002060008282546118ee9190612e0e565b92505081905550816002600083815260200190815260200160002060006101000a81548173ffffffffffffffffffffffffffffffffffffffff021916908373ffffffffffffffffffffffffffffffffffffffff160217905550808273ffffffffffffffffffffffffffffffffffffffff16600073ffffffffffffffffffffffffffffffffffffffff167fddf252ad1be2c89b69c2b068fc378daa952ba7f163c4a11628f55a4df523b3ef60405160405180910390a46119af60008383611e2a565b5050565b6119bc82611db9565b6119fb576040517f08c379a00000000000000000000000000000000000000000000000000000000081526004016119f290612bd8565b60405180910390fd5b80600660008481526020019081526020016000209080519060200190611a22929190612196565b505050565b8173ffffffffffffffffffffffffffffffffffffffff168373ffffffffffffffffffffffffffffffffffffffff161415611a96576040517f08c379a0000000000000000000000000000000000000000000000000000000008152600401611a8d90612b18565b60405180910390fd5b80600560008573ffffffffffffffffffffffffffffffffffffffff1673ffffffffffffffffffffffffffffffffffffffff16815260200190815260200160002060008473ffffffffffffffffffffffffffffffffffffffff1673ffffffffffffffffffffffffffffffffffffffff16815260200190815260200160002060006101000a81548160ff0219169083151502179055508173ffffffffffffffffffffffffffffffffffffffff168373ffffffffffffffffffffffffffffffffffffffff167f17307eab39ab6107e8899845ad3d59bd9653f200f220920489ca2b5937696c3183604051611b879190612a1b565b60405180910390a3505050565b611b9f848484611572565b611bab84848484611e2f565b611bea576040517f08c379a0000000000000000000000000000000000000000000000000000000008152600401611be190612a78565b60405180910390fd5b50505050565b606060405180602001604052806000815250905090565b6060611c12826113c3565b6000611c1c611bf0565b90506000815111611c3c5760405180602001604052806000815250611c67565b80611c4684611fc6565b604051602001611c57929190612990565b6040516020818303038152906040525b915050919050565b6001816000016000828254019250508190555050565b600760009054906101000a900473ffffffffffffffffffffffffffffffffffffffff1673ffffffffffffffffffffffffffffffffffffffff163373ffffffffffffffffffffffffffffffffffffffff1614611cdf57600080fd5b60011515600c600084815260200190815260200160002060009054906101000a900460ff16151514158015611d2757506000600d600084815260200190815260200160002054145b611d66576040517f08c379a0000000000000000000000000000000000000000000000000000000008152600401611d5d90612b38565b60405180910390fd5b6001600c600084815260200190815260200160002060006101000a81548160ff0219169083151502179055508042611d9e9190612e0e565b600d6000848152602001908152602001600020819055505050565b60008073ffffffffffffffffffffffffffffffffffffffff166002600084815260200190815260200160002060009054906101000a900473ffffffffffffffffffffffffffffffffffffffff1673ffffffffffffffffffffffffffffffffffffffff1614159050919050565b505050565b505050565b6000611e508473ffffffffffffffffffffffffffffffffffffffff16612173565b15611fb9578373ffffffffffffffffffffffffffffffffffffffff1663150b7a02611e7961140e565b8786866040518563ffffffff1660e01b8152600401611e9b94939291906129cf565b602060405180830381600087803b158015611eb557600080fd5b505af1925050508015611ee657506040513d601f19601f82011682018060405250810190611ee39190612591565b60015b611f69573d8060008114611f16576040519150601f19603f3d011682016040523d82523d6000602084013e611f1b565b606091505b50600081511415611f61576040517f08c379a0000000000000000000000000000000000000000000000000000000008152600401611f5890612a78565b60405180910390fd5b805181602001fd5b63150b7a0260e01b7bffffffffffffffffffffffffffffffffffffffffffffffffffffffff1916817bffffffffffffffffffffffffffffffffffffffffffffffffffffffff191614915050611fbe565b600190505b949350505050565b6060600082141561200e576040518060400160405280600181526020017f3000000000000000000000000000000000000000000000000000000000000000815250905061216e565b600082905060005b6000821461204057808061202990612fe2565b915050600a826120399190612e64565b9150612016565b60008167ffffffffffffffff811115612082577f4e487b7100000000000000000000000000000000000000000000000000000000600052604160045260246000fd5b6040519080825280601f01601f1916602001820160405280156120b45781602001600182028036833780820191505090505b5090505b60008514612167576001826120cd9190612e95565b9150600a856120dc919061302b565b60306120e89190612e0e565b60f81b818381518110612124577f4e487b7100000000000000000000000000000000000000000000000000000000600052603260045260246000fd5b60200101907effffffffffffffffffffffffffffffffffffffffffffffffffffffffffffff1916908160001a905350600a856121609190612e64565b94506120b8565b8093505050505b919050565b6000808273ffffffffffffffffffffffffffffffffffffffff163b119050919050565b8280546121a290612f7f565b90600052602060002090601f0160209004810192826121c4576000855561220b565b82601f106121dd57805160ff191683800117855561220b565b8280016001018555821561220b579182015b8281111561220a5782518255916020019190600101906121ef565b5b509050612218919061221c565b5090565b5b8082111561223557600081600090555060010161221d565b5090565b600061224c61224784612d69565b612d44565b90508281526020810184848401111561226457600080fd5b61226f848285612f3d565b509392505050565b600061228a61228584612d9a565b612d44565b9050828152602081018484840111156122a257600080fd5b6122ad848285612f3d565b509392505050565b6000813590506122c481613587565b92915050565b6000813590506122d98161359e565b92915050565b6000813590506122ee816135b5565b92915050565b600081519050612303816135b5565b92915050565b600082601f83011261231a57600080fd5b813561232a848260208601612239565b91505092915050565b600082601f83011261234457600080fd5b8135612354848260208601612277565b91505092915050565b60008135905061236c816135cc565b92915050565b60006020828403121561238457600080fd5b6000612392848285016122b5565b91505092915050565b600080604083850312156123ae57600080fd5b60006123bc858286016122b5565b92505060206123cd858286016122b5565b9150509250929050565b6000806000606084860312156123ec57600080fd5b60006123fa868287016122b5565b935050602061240b868287016122b5565b925050604061241c8682870161235d565b9150509250925092565b6000806000806080858703121561243c57600080fd5b600061244a878288016122b5565b945050602061245b878288016122b5565b935050604061246c8782880161235d565b925050606085013567ffffffffffffffff81111561248957600080fd5b61249587828801612309565b91505092959194509250565b600080604083850312156124b457600080fd5b60006124c2858286016122b5565b92505060206124d3858286016122ca565b9150509250929050565b600080604083850312156124f057600080fd5b60006124fe858286016122b5565b925050602061250f8582860161235d565b9150509250929050565b60008060006060848603121561252e57600080fd5b600061253c868287016122b5565b935050602061254d8682870161235d565b925050604061255e8682870161235d565b9150509250925092565b60006020828403121561257a57600080fd5b6000612588848285016122df565b91505092915050565b6000602082840312156125a357600080fd5b60006125b1848285016122f4565b91505092915050565b6000602082840312156125cc57600080fd5b60006125da8482850161235d565b91505092915050565b6000806000606084860312156125f857600080fd5b60006126068682870161235d565b935050602084013567ffffffffffffffff81111561262357600080fd5b61262f86828701612333565b92505060406126408682870161235d565b9150509250925092565b61265381612ec9565b82525050565b61266281612edb565b82525050565b600061267382612dcb565b61267d8185612de1565b935061268d818560208601612f4c565b61269681613118565b840191505092915050565b60006126ac82612dd6565b6126b68185612df2565b93506126c6818560208601612f4c565b6126cf81613118565b840191505092915050565b60006126e582612dd6565b6126ef8185612e03565b93506126ff818560208601612f4c565b80840191505092915050565b6000612718601683612df2565b915061272382613129565b602082019050919050565b600061273b603283612df2565b915061274682613152565b604082019050919050565b600061275e602583612df2565b9150612769826131a1565b604082019050919050565b6000612781601c83612df2565b915061278c826131f0565b602082019050919050565b60006127a4601a83612df2565b91506127af82613219565b602082019050919050565b60006127c7602483612df2565b91506127d282613242565b604082019050919050565b60006127ea601983612df2565b91506127f582613291565b602082019050919050565b600061280d600d83612df2565b9150612818826132ba565b602082019050919050565b6000612830600d83612df2565b915061283b826132e3565b602082019050919050565b6000612853602a83612df2565b915061285e8261330c565b604082019050919050565b6000612876602983612df2565b91506128818261335b565b604082019050919050565b6000612899602183612df2565b91506128a4826133aa565b604082019050919050565b60006128bc602e83612df2565b91506128c7826133f9565b604082019050919050565b60006128df603e83612df2565b91506128ea82613448565b604082019050919050565b6000612902602083612df2565b915061290d82613497565b602082019050919050565b6000612925601883612df2565b9150612930826134c0565b602082019050919050565b6000612948602183612df2565b9150612953826134e9565b604082019050919050565b600061296b602e83612df2565b915061297682613538565b604082019050919050565b61298a81612f33565b82525050565b600061299c82856126da565b91506129a882846126da565b91508190509392505050565b60006020820190506129c9600083018461264a565b92915050565b60006080820190506129e4600083018761264a565b6129f1602083018661264a565b6129fe6040830185612981565b8181036060830152612a108184612668565b905095945050505050565b6000602082019050612a306000830184612659565b92915050565b60006020820190508181036000830152612a5081846126a1565b905092915050565b60006020820190508181036000830152612a718161270b565b9050919050565b60006020820190508181036000830152612a918161272e565b9050919050565b60006020820190508181036000830152612ab181612751565b9050919050565b60006020820190508181036000830152612ad181612774565b9050919050565b60006020820190508181036000830152612af181612797565b9050919050565b60006020820190508181036000830152612b11816127ba565b9050919050565b60006020820190508181036000830152612b31816127dd565b9050919050565b60006020820190508181036000830152612b5181612800565b9050919050565b60006020820190508181036000830152612b7181612823565b9050919050565b60006020820190508181036000830152612b9181612846565b9050919050565b60006020820190508181036000830152612bb181612869565b9050919050565b60006020820190508181036000830152612bd18161288c565b9050919050565b60006020820190508181036000830152612bf1816128af565b9050919050565b60006020820190508181036000830152612c11816128d2565b9050919050565b60006020820190508181036000830152612c31816128f5565b9050919050565b60006020820190508181036000830152612c5181612918565b9050919050565b60006020820190508181036000830152612c718161293b565b9050919050565b60006020820190508181036000830152612c918161295e565b9050919050565b6000602082019050612cad6000830184612981565b92915050565b6000608082019050612cc86000830187612981565b8181036020830152612cda81866126a1565b9050612ce96040830185612981565b612cf66060830184612981565b95945050505050565b6000608082019050612d146000830187612981565b612d216020830186612981565b612d2e6040830185612981565b612d3b6060830184612981565b95945050505050565b6000612d4e612d5f565b9050612d5a8282612fb1565b919050565b6000604051905090565b600067ffffffffffffffff821115612d8457612d836130e9565b5b612d8d82613118565b9050602081019050919050565b600067ffffffffffffffff821115612db557612db46130e9565b5b612dbe82613118565b9050602081019050919050565b600081519050919050565b600081519050919050565b600082825260208201905092915050565b600082825260208201905092915050565b600081905092915050565b6000612e1982612f33565b9150612e2483612f33565b9250827fffffffffffffffffffffffffffffffffffffffffffffffffffffffffffffffff03821115612e5957612e5861305c565b5b828201905092915050565b6000612e6f82612f33565b9150612e7a83612f33565b925082612e8a57612e8961308b565b5b828204905092915050565b6000612ea082612f33565b9150612eab83612f33565b925082821015612ebe57612ebd61305c565b5b828203905092915050565b6000612ed482612f13565b9050919050565b60008115159050919050565b60007fffffffff0000000000000000000000000000000000000000000000000000000082169050919050565b600073ffffffffffffffffffffffffffffffffffffffff82169050919050565b6000819050919050565b82818337600083830152505050565b60005b83811015612f6a578082015181840152602081019050612f4f565b83811115612f79576000848401525b50505050565b60006002820490506001821680612f9757607f821691505b60208210811415612fab57612faa6130ba565b5b50919050565b612fba82613118565b810181811067ffffffffffffffff82111715612fd957612fd86130e9565b5b80604052505050565b6000612fed82612f33565b91507fffffffffffffffffffffffffffffffffffffffffffffffffffffffffffffffff8214156130205761301f61305c565b5b600182019050919050565b600061303682612f33565b915061304183612f33565b9250826130515761305061308b565b5b828206905092915050565b7f4e487b7100000000000000000000000000000000000000000000000000000000600052601160045260246000fd5b7f4e487b7100000000000000000000000000000000000000000000000000000000600052601260045260246000fd5b7f4e487b7100000000000000000000000000000000000000000000000000000000600052602260045260246000fd5b7f4e487b7100000000000000000000000000000000000000000000000000000000600052604160045260246000fd5b6000601f19601f8301169050919050565b7f656e74657220636f7272656e7420746f6b656e55524900000000000000000000600082015250565b7f4552433732313a207472616e7366657220746f206e6f6e20455243373231526560008201527f63656976657220696d706c656d656e7465720000000000000000000000000000602082015250565b7f4552433732313a207472616e736665722066726f6d20696e636f72726563742060008201527f6f776e6572000000000000000000000000000000000000000000000000000000602082015250565b7f4552433732313a20746f6b656e20616c7265616479206d696e74656400000000600082015250565b7f77617272616e74792069732069737375656420616c7265616479000000000000600082015250565b7f4552433732313a207472616e7366657220746f20746865207a65726f2061646460008201527f7265737300000000000000000000000000000000000000000000000000000000602082015250565b7f4552433732313a20617070726f766520746f2063616c6c657200000000000000600082015250565b7f616c72656164792076616c696400000000000000000000000000000000000000600082015250565b7f76616c6964697479206f76657200000000000000000000000000000000000000600082015250565b7f4e4f2077617272616e74792069732069737375656420746f20796f7520666f7260008201527f2074686174206974656d00000000000000000000000000000000000000000000602082015250565b7f4552433732313a2061646472657373207a65726f206973206e6f74206120766160008201527f6c6964206f776e65720000000000000000000000000000000000000000000000602082015250565b7f796f7520617265206e6f7420746865206f776e6572206f662074686973206e6660008201527f7400000000000000000000000000000000000000000000000000000000000000602082015250565b7f45524337323155524953746f726167653a2055524920736574206f66206e6f6e60008201527f6578697374656e7420746f6b656e000000000000000000000000000000000000602082015250565b7f4552433732313a20617070726f76652063616c6c6572206973206e6f7420746f60008201527f6b656e206f776e6572206e6f7220617070726f76656420666f7220616c6c0000602082015250565b7f4552433732313a206d696e7420746f20746865207a65726f2061646472657373600082015250565b7f4552433732313a20696e76616c696420746f6b656e2049440000000000000000600082015250565b7f4552433732313a20617070726f76616c20746f2063757272656e74206f776e6560008201527f7200000000000000000000000000000000000000000000000000000000000000602082015250565b7f4552433732313a2063616c6c6572206973206e6f7420746f6b656e206f776e6560008201527f72206e6f7220617070726f766564000000000000000000000000000000000000602082015250565b61359081612ec9565b811461359b57600080fd5b50565b6135a781612edb565b81146135b257600080fd5b50565b6135be81612ee7565b81146135c957600080fd5b50565b6135d581612f33565b81146135e057600080fd5b5056fea2646970667358221220c89d6aaad311ba30aa0e2be04ece225b21bd6c482edace77e867e67552f0abd964736f6c63430008010033",
  "immutableReferences": {},
  "source": "// SPDX-License-Identifier: MIT\r\n\r\npragma solidity ^0.8.1;\r\n\r\nimport \"@openzeppelin/contracts/token/ERC721/extensions/ERC721URIStorage.sol\"; //using ERC721  as a base Standard(after removing the transfer and safe_transfer we can make a soulbound nft )\r\nimport \"@openzeppelin/contracts/utils/Counters.sol\"; // uisng counters to take a record of how much nft minted/Degree issued\r\n\r\ncontract Warranty is ERC721URIStorage {\r\n    address public Shop_owner;\r\n\r\n    using Counters for Counters.Counter;\r\n    Counters.Counter public tokenId;\r\n\r\n    // here ERC721 constructor({collection_name} ,{collection_symbol}) call first then our contract's constructor\r\n    constructor() ERC721(\"WarrantyNFT\", \"WNFT\") {\r\n        Shop_owner = msg.sender;\r\n    }\r\n\r\n    // modifier that only owner can call that particular func\r\n    modifier OwnerOnly() {\r\n        require(msg.sender == Shop_owner);\r\n        _;\r\n    }\r\n\r\n    // warranty issued to specific address fro a specific serial number item\r\n    mapping(address => mapping(uint256 => bool)) public warrantyIssuedTo;\r\n\r\n    mapping(uint256 => address) public tokenIdToPerson; // who one a specific token id\r\n\r\n    mapping(uint256 => string) public tokenIdTotokenURI; // store torkenuri of each id\r\n\r\n    mapping(uint256 => bool) public isValid; // any nft of specific id is valid or not\r\n\r\n    mapping(uint256 => uint256) public validTill; // any nft of specific id is valid till\r\n\r\n    //event for warrantyissue func\r\n    event WarrantyIssue(\r\n        address indexed _to,\r\n        uint256 _serialID,\r\n        uint256 _validTill,\r\n        uint256 _tokenId,\r\n        uint256 _time\r\n    );\r\n\r\n    // event for claimWarranty func\r\n    event ClaimWarranty(\r\n        address indexed _from,\r\n        uint256 _tokenId,\r\n        string _tokenURI,\r\n        uint256 _serialID,\r\n        uint256 _time\r\n    );\r\n\r\n    // owner can issue the nft  to a user for a specific product and return that issued id\r\n    function warrantyIssue(\r\n        address _to,\r\n        uint256 _serialID,\r\n        uint256 _validTill\r\n    ) external OwnerOnly returns (uint256) {\r\n        require(\r\n            warrantyIssuedTo[_to][_serialID] != true,\r\n            \"warranty is issued already\"\r\n        );\r\n        warrantyIssuedTo[_to][_serialID] = true;\r\n        tokenId.increment(); //now not zero\r\n        tokenIdToPerson[tokenId.current()] = _to; // setting the tokenId mapping\r\n        validityIssue(tokenId.current(), _validTill); // issuing the validity\r\n\r\n        emit WarrantyIssue(\r\n            _to,\r\n            _serialID,\r\n            _validTill,\r\n            tokenId.current(),\r\n            block.timestamp\r\n        );\r\n        return tokenId.current();\r\n    }\r\n\r\n    // set the validity and and validtill( in sec) for any token Id;\r\n    function validityIssue(uint256 _tokenId, uint256 _validTill)\r\n        internal\r\n        OwnerOnly\r\n    {\r\n        require(\r\n            isValid[_tokenId] != true && validTill[_tokenId] == 0,\r\n            \"already valid\"\r\n        );\r\n\r\n        isValid[_tokenId] = true;\r\n        validTill[_tokenId] = block.timestamp + _validTill;\r\n    }\r\n\r\n    // user can claim his/her nft by adding the tokenID and tokenURI\r\n    function claimWarranty(\r\n        uint256 _tokenId,\r\n        string memory _tokenURI,\r\n        uint256 _serialID\r\n    ) public returns (bool) {\r\n        require(bytes(_tokenURI).length > 66, \"enter corrent tokenURI\");\r\n        require(\r\n            tokenIdToPerson[_tokenId] == msg.sender,\r\n            \"you are not the owner of this nft\"\r\n        );\r\n        require(\r\n            warrantyIssuedTo[msg.sender][_serialID] == true,\r\n            \"NO warranty is issued to you for that item\"\r\n        );\r\n        require(validTill[_tokenId] >= block.timestamp, \"validity over\");\r\n\r\n        _mint(msg.sender, _tokenId); // address , tokenId\r\n        _setTokenURI(_tokenId, _tokenURI);\r\n        tokenIdTotokenURI[_tokenId] = _tokenURI;\r\n\r\n        warrantyIssuedTo[msg.sender][_serialID] = false; // not mint twice\r\n\r\n        emit ClaimWarranty(\r\n            msg.sender,\r\n            _tokenId,\r\n            _tokenURI,\r\n            _serialID,\r\n            block.timestamp\r\n        );\r\n\r\n        return true; // Id of the minted NFT\r\n    }\r\n\r\n    // function for checking the valid time for all  nfts and this function is called by gelato every specific interval\r\n    function checkValid() public {\r\n        for (uint256 i = 1; i <= tokenId.current(); i++) {\r\n            if (validTill[i] >= block.timestamp) {} else {\r\n                isValid[i] = false;\r\n            }\r\n        }\r\n    }\r\n}\r\n",
  "sourcePath": "E:/Web3 dev/warranty/src/contracts/Warranty.sol",
  "compiler": {
    "name": "solc",
    "version": "0.8.1+commit.df193b15.Emscripten.clang"
  },
  "schemaVersion": "3.2.3",
  "updatedAt": "2022-07-31T07:22:59.094Z",
  "networkType": "ethereum",
  "devdoc": {
    "kind": "dev",
    "methods": {
      "approve(address,uint256)": {
        "details": "See {IERC721-approve}."
      },
      "balanceOf(address)": {
        "details": "See {IERC721-balanceOf}."
      },
      "getApproved(uint256)": {
        "details": "See {IERC721-getApproved}."
      },
      "isApprovedForAll(address,address)": {
        "details": "See {IERC721-isApprovedForAll}."
      },
      "name()": {
        "details": "See {IERC721Metadata-name}."
      },
      "ownerOf(uint256)": {
        "details": "See {IERC721-ownerOf}."
      },
      "safeTransferFrom(address,address,uint256)": {
        "details": "See {IERC721-safeTransferFrom}."
      },
      "safeTransferFrom(address,address,uint256,bytes)": {
        "details": "See {IERC721-safeTransferFrom}."
      },
      "setApprovalForAll(address,bool)": {
        "details": "See {IERC721-setApprovalForAll}."
      },
      "supportsInterface(bytes4)": {
        "details": "See {IERC165-supportsInterface}."
      },
      "symbol()": {
        "details": "See {IERC721Metadata-symbol}."
      },
      "tokenURI(uint256)": {
        "details": "See {IERC721Metadata-tokenURI}."
      },
      "transferFrom(address,address,uint256)": {
        "details": "See {IERC721-transferFrom}."
      }
    },
    "version": 1
  },
  "userdoc": {
    "kind": "user",
    "methods": {},
    "version": 1
  }
}